{
  "contractName": "SimpleStorage",
  "abi": [
    {
      "constant": true,
      "inputs": [],
      "name": "storedData",
      "outputs": [
        {
          "internalType": "uint256",
          "name": "",
          "type": "uint256"
        }
      ],
      "payable": false,
      "stateMutability": "view",
      "type": "function"
    },
    {
      "constant": false,
      "inputs": [
        {
          "internalType": "uint256",
          "name": "x",
          "type": "uint256"
        }
      ],
      "name": "set",
      "outputs": [],
      "payable": false,
      "stateMutability": "nonpayable",
      "type": "function"
    }
  ],
  "bytecode": "0x608060405234801561001057600080fd5b5060c38061001f6000396000f3fe6080604052348015600f57600080fd5b506004361060325760003560e01c80632a1afcd914603757806360fe47b1146053575b600080fd5b603d607e565b6040518082815260200191505060405180910390f35b607c60048036036020811015606757600080fd5b81019080803590602001909291905050506084565b005b60005481565b806000819055505056fea265627a7a7231582072ea60ad1fec7bbde27c5e9f79cdf90d4c471d86be796e312ea962e5078794dd64736f6c63430005110032",
  "source": "pragma solidity ^0.5.0;\r\n\r\n\r\ncontract SimpleStorage {\r\n    uint256 public storedData;\r\n\r\n    function set(uint256 x) public {\r\n        storedData = x;\r\n    }\r\n}\r\n",
  "sourcePath": "C:\\Users\\tobog\\Documents\\GitHub\\truffle-test-debugging\\contracts\\SimpleStorage.sol",
  "compiler": {
    "name": "solc",
    "version": "0.5.17+commit.d19bba13.Emscripten.clang"
  },
  "schemaVersion": "3.0.23",
  "updatedAt": "2020-05-11T21:09:17.250Z",
  "networkType": "ethereum",
  "devdoc": {
    "methods": {}
  },
  "userdoc": {
    "methods": {}
  }
}